{
  "contractName": "Asset",
  "abi": [
    {
      "constant": true,
      "inputs": [],
      "name": "txcount",
      "outputs": [
        {
          "name": "",
          "type": "uint256"
        }
      ],
      "payable": false,
      "stateMutability": "view",
      "type": "function",
      "signature": "0x04297281"
    },
    {
      "constant": true,
      "inputs": [],
      "name": "itemCount",
      "outputs": [
        {
          "name": "",
          "type": "uint256"
        }
      ],
      "payable": false,
      "stateMutability": "view",
      "type": "function",
      "signature": "0x6bfb0d01"
    },
    {
      "constant": true,
      "inputs": [
        {
          "name": "",
          "type": "uint256"
        }
      ],
      "name": "transactions",
      "outputs": [
        {
          "name": "iid",
          "type": "uint256"
        },
        {
          "name": "from",
          "type": "address"
        },
        {
          "name": "to",
          "type": "address"
        },
        {
          "name": "cost",
          "type": "uint256"
        },
        {
          "name": "location",
          "type": "string"
        }
      ],
      "payable": false,
      "stateMutability": "view",
      "type": "function",
      "signature": "0x9ace38c2"
    },
    {
      "constant": true,
      "inputs": [
        {
          "name": "",
          "type": "uint256"
        }
      ],
      "name": "items",
      "outputs": [
        {
          "name": "id",
          "type": "uint256"
        },
        {
          "name": "name",
          "type": "string"
        },
        {
          "name": "quantity",
          "type": "uint256"
        },
        {
          "name": "location",
          "type": "string"
        },
        {
          "name": "cost",
          "type": "uint256"
        },
        {
          "name": "owner",
          "type": "address"
        },
        {
          "name": "txcount",
          "type": "uint256"
        }
      ],
      "payable": false,
      "stateMutability": "view",
      "type": "function",
      "signature": "0xbfb231d2"
    },
    {
      "inputs": [],
      "payable": false,
      "stateMutability": "nonpayable",
      "type": "constructor",
      "signature": "constructor"
    },
    {
      "constant": false,
      "inputs": [
        {
          "name": "_name",
          "type": "string"
        },
        {
          "name": "_quantity",
          "type": "uint256"
        },
        {
          "name": "_location",
          "type": "string"
        },
        {
          "name": "_cost",
          "type": "uint256"
        }
      ],
      "name": "addItem",
      "outputs": [],
      "payable": false,
      "stateMutability": "nonpayable",
      "type": "function",
      "signature": "0x9ddff941"
    },
    {
      "constant": false,
      "inputs": [
        {
          "name": "_iid",
          "type": "uint256"
        },
        {
          "name": "_to",
          "type": "address"
        },
        {
          "name": "_cost",
          "type": "uint256"
        },
        {
          "name": "_location",
          "type": "string"
        }
      ],
      "name": "transactItem",
      "outputs": [],
      "payable": false,
      "stateMutability": "nonpayable",
      "type": "function",
      "signature": "0x97f8147a"
    },
    {
      "constant": false,
      "inputs": [
        {
          "name": "_iid",
          "type": "uint256"
        }
      ],
      "name": "getItemName",
      "outputs": [
        {
          "name": "name",
          "type": "string"
        }
      ],
      "payable": false,
      "stateMutability": "nonpayable",
      "type": "function",
      "signature": "0xd9561a91"
    },
    {
      "constant": true,
      "inputs": [],
      "name": "getTransactionCount",
      "outputs": [
        {
          "name": "",
          "type": "uint256"
        }
      ],
      "payable": false,
      "stateMutability": "view",
      "type": "function",
      "signature": "0x2e7700f0"
    },
    {
      "constant": true,
      "inputs": [],
      "name": "getItemTotal",
      "outputs": [
        {
          "name": "",
          "type": "uint256"
        }
      ],
      "payable": false,
      "stateMutability": "view",
      "type": "function",
      "signature": "0x7fdc19af"
    },
    {
      "constant": false,
      "inputs": [
        {
          "name": "_iid",
          "type": "uint256"
        },
        {
          "name": "newOwner",
          "type": "address"
        }
      ],
      "name": "transferOwnership",
      "outputs": [],
      "payable": false,
      "stateMutability": "nonpayable",
      "type": "function",
      "signature": "0x29507f73"
    }
  ],
  "bytecode": "0x60806040526000600255600060035534801561001a57600080fd5b5061102d8061002a6000396000f3fe6080604052600436106100a4576000357c0100000000000000000000000000000000000000000000000000000000900463ffffffff16806304297281146100a957806329507f73146100d45780632e7700f01461012f5780636bfb0d011461015a5780637fdc19af1461018557806397f8147a146101b05780639ace38c2146102ac5780639ddff941146103d4578063bfb231d214610547578063d9561a91146106b6575b600080fd5b3480156100b557600080fd5b506100be61076a565b6040518082815260200191505060405180910390f35b3480156100e057600080fd5b5061012d600480360360408110156100f757600080fd5b8101908080359060200190929190803573ffffffffffffffffffffffffffffffffffffffff169060200190929190505050610770565b005b34801561013b57600080fd5b506101446107c8565b6040518082815260200191505060405180910390f35b34801561016657600080fd5b5061016f6107d2565b6040518082815260200191505060405180910390f35b34801561019157600080fd5b5061019a6107d8565b6040518082815260200191505060405180910390f35b3480156101bc57600080fd5b506102aa600480360360808110156101d357600080fd5b8101908080359060200190929190803573ffffffffffffffffffffffffffffffffffffffff169060200190929190803590602001909291908035906020019064010000000081111561022457600080fd5b82018360208201111561023657600080fd5b8035906020019184600183028401116401000000008311171561025857600080fd5b91908080601f016020809104026020016040519081016040528093929190818152602001838380828437600081840152601f19601f8201169050808301925050505050505091929192905050506107e2565b005b3480156102b857600080fd5b506102e5600480360360208110156102cf57600080fd5b810190808035906020019092919050505061094a565b604051808681526020018573ffffffffffffffffffffffffffffffffffffffff1673ffffffffffffffffffffffffffffffffffffffff1681526020018473ffffffffffffffffffffffffffffffffffffffff1673ffffffffffffffffffffffffffffffffffffffff16815260200183815260200180602001828103825283818151815260200191508051906020019080838360005b8381101561039557808201518184015260208101905061037a565b50505050905090810190601f1680156103c25780820380516001836020036101000a031916815260200191505b50965050505050505060405180910390f35b3480156103e057600080fd5b50610545600480360360808110156103f757600080fd5b810190808035906020019064010000000081111561041457600080fd5b82018360208201111561042657600080fd5b8035906020019184600183028401116401000000008311171561044857600080fd5b91908080601f016020809104026020016040519081016040528093929190818152602001838380828437600081840152601f19601f82011690508083019250505050505050919291929080359060200190929190803590602001906401000000008111156104b557600080fd5b8201836020820111156104c757600080fd5b803590602001918460018302840111640100000000831117156104e957600080fd5b91908080601f016020809104026020016040519081016040528093929190818152602001838380828437600081840152601f19601f82011690508083019250505050505050919291929080359060200190929190505050610a58565b005b34801561055357600080fd5b506105806004803603602081101561056a57600080fd5b8101908080359060200190929190505050610b7d565b6040518088815260200180602001878152602001806020018681526020018573ffffffffffffffffffffffffffffffffffffffff1673ffffffffffffffffffffffffffffffffffffffff168152602001848152602001838103835289818151815260200191508051906020019080838360005b8381101561060e5780820151818401526020810190506105f3565b50505050905090810190601f16801561063b5780820380516001836020036101000a031916815260200191505b50838103825287818151815260200191508051906020019080838360005b83811015610674578082015181840152602081019050610659565b50505050905090810190601f1680156106a15780820380516001836020036101000a031916815260200191505b50995050505050505050505060405180910390f35b3480156106c257600080fd5b506106ef600480360360208110156106d957600080fd5b8101908080359060200190929190505050610d0f565b6040518080602001828103825283818151815260200191508051906020019080838360005b8381101561072f578082015181840152602081019050610714565b50505050905090810190601f16801561075c5780820380516001836020036101000a031916815260200191505b509250505060405180910390f35b60035481565b8060008084815260200190815260200160002060050160006101000a81548173ffffffffffffffffffffffffffffffffffffffff021916908373ffffffffffffffffffffffffffffffffffffffff1602179055505050565b6000600354905090565b60025481565b6000600254905090565b6000808581526020019081526020016000206006016000815480929190600101919050555060036000815480929190600101919050555060a0604051908101604052808581526020013373ffffffffffffffffffffffffffffffffffffffff1681526020018473ffffffffffffffffffffffffffffffffffffffff168152602001838152602001828152506001600060035481526020019081526020016000206000820151816000015560208201518160010160006101000a81548173ffffffffffffffffffffffffffffffffffffffff021916908373ffffffffffffffffffffffffffffffffffffffff16021790555060408201518160020160006101000a81548173ffffffffffffffffffffffffffffffffffffffff021916908373ffffffffffffffffffffffffffffffffffffffff160217905550606082015181600301556080820151816004019080519060200190610940929190610f08565b5090505050505050565b60016020528060005260406000206000915090508060000154908060010160009054906101000a900473ffffffffffffffffffffffffffffffffffffffff16908060020160009054906101000a900473ffffffffffffffffffffffffffffffffffffffff1690806003015490806004018054600181600116156101000203166002900480601f016020809104026020016040519081016040528092919081815260200182805460018160011615610100020316600290048015610a4e5780601f10610a2357610100808354040283529160200191610a4e565b820191906000526020600020905b815481529060010190602001808311610a3157829003601f168201915b5050505050905085565b60026000815480929190600101919050555060e06040519081016040528060025481526020018581526020018481526020018381526020018281526020013373ffffffffffffffffffffffffffffffffffffffff16815260200160008152506000806002548152602001908152602001600020600082015181600001556020820151816001019080519060200190610af1929190610f08565b50604082015181600201556060820151816003019080519060200190610b18929190610f08565b506080820151816004015560a08201518160050160006101000a81548173ffffffffffffffffffffffffffffffffffffffff021916908373ffffffffffffffffffffffffffffffffffffffff16021790555060c0820151816006015590505050505050565b6000602052806000526040600020600091509050806000015490806001018054600181600116156101000203166002900480601f016020809104026020016040519081016040528092919081815260200182805460018160011615610100020316600290048015610c2f5780601f10610c0457610100808354040283529160200191610c2f565b820191906000526020600020905b815481529060010190602001808311610c1257829003601f168201915b505050505090806002015490806003018054600181600116156101000203166002900480601f016020809104026020016040519081016040528092919081815260200182805460018160011615610100020316600290048015610cd35780601f10610ca857610100808354040283529160200191610cd3565b820191906000526020600020905b815481529060010190602001808311610cb657829003601f168201915b5050505050908060040154908060050160009054906101000a900473ffffffffffffffffffffffffffffffffffffffff16908060060154905087565b6060610d19610f88565b60008084815260200190815260200160002060e0604051908101604052908160008201548152602001600182018054600181600116156101000203166002900480601f016020809104026020016040519081016040528092919081815260200182805460018160011615610100020316600290048015610dda5780601f10610daf57610100808354040283529160200191610dda565b820191906000526020600020905b815481529060010190602001808311610dbd57829003601f168201915b5050505050815260200160028201548152602001600382018054600181600116156101000203166002900480601f016020809104026020016040519081016040528092919081815260200182805460018160011615610100020316600290048015610e865780601f10610e5b57610100808354040283529160200191610e86565b820191906000526020600020905b815481529060010190602001808311610e6957829003601f168201915b50505050508152602001600482015481526020016005820160009054906101000a900473ffffffffffffffffffffffffffffffffffffffff1673ffffffffffffffffffffffffffffffffffffffff1673ffffffffffffffffffffffffffffffffffffffff16815260200160068201548152505090508060200151915050919050565b828054600181600116156101000203166002900490600052602060002090601f016020900481019282601f10610f4957805160ff1916838001178555610f77565b82800160010185558215610f77579182015b82811115610f76578251825591602001919060010190610f5b565b5b509050610f849190610fdc565b5090565b60e0604051908101604052806000815260200160608152602001600081526020016060815260200160008152602001600073ffffffffffffffffffffffffffffffffffffffff168152602001600081525090565b610ffe91905b80821115610ffa576000816000905550600101610fe2565b5090565b9056fea165627a7a7230582050c11eeca8cd4de8867fbd383fc781c108c085233aefb94f65658d0e6d81a8670029",
  "source": "pragma solidity ^0.5.0;\r\n\r\ncontract Asset {\r\n    \r\n    constructor() public {  \r\n    }\r\n\r\n    //Transaction Structure\r\n    struct TxDetail {\r\n        uint iid;\r\n        address from;\r\n        address to;\r\n        uint cost;\r\n        string location;\r\n    }\r\n\r\n    //Item Structure\r\n    struct Item {\r\n        uint id;\r\n        string name;\r\n        uint quantity;\r\n        string location;\r\n        uint cost;\r\n        address owner;\r\n        uint txcount;\r\n    }\r\n\r\n    \r\n    mapping(uint => Item) public items;\r\n    mapping(uint => TxDetail) public transactions;\r\n\r\n    uint public itemCount = 0 ;\r\n    uint public txcount = 0;\r\n\r\n    function addItem (string memory _name, uint _quantity,string memory _location, uint  _cost) public {\r\n        itemCount ++;\r\n        items[itemCount] = Item(itemCount, _name, _quantity, _location,_cost,msg.sender,0);\r\n    }\r\n\r\n    \r\n\r\n    function transactItem(uint _iid, address _to, uint _cost,string memory _location) public {    \r\n        items[_iid].txcount++;\r\n        txcount++;\r\n        transactions[txcount] = TxDetail(_iid,msg.sender,_to,_cost,_location);\r\n    }\r\n\r\n    function getItemName(uint _iid) public returns(string memory name){\r\n        Item memory I = items[_iid];\r\n        return I.name;\r\n    }\r\n\r\n    function getTransactionCount() public view returns (uint){\r\n        return txcount;\r\n    }\r\n\r\n    function getItemTotal() public view returns (uint){\r\n        return itemCount;\r\n    }\r\n\r\n    function transferOwnership(uint _iid,address newOwner)  public {\r\n        items[_iid].owner = newOwner;\r\n    }\r\n\r\n}",
  "sourcePath": "S:/Decentralized/Unisys/Ang_Eth/contracts/Asset.sol",
  "compiler": {
    "name": "solc",
    "version": "0.5.0+commit.1d4f565a.Emscripten.clang"
  },
  "schemaVersion": "3.0.2",
  "updatedAt": "2019-03-27T16:51:20.811Z",
  "devdoc": {
    "methods": {}
  },
  "userdoc": {
    "methods": {}
  }
}